{
  "contractName": "ProxyAdmin",
  "abi": [
    {
      "anonymous": false,
      "inputs": [
        {
          "indexed": true,
          "internalType": "address",
          "name": "previousOwner",
          "type": "address"
        },
        {
          "indexed": true,
          "internalType": "address",
          "name": "newOwner",
          "type": "address"
        }
      ],
      "name": "OwnershipTransferred",
      "type": "event"
    },
    {
      "inputs": [],
      "name": "owner",
      "outputs": [
        {
          "internalType": "address",
          "name": "",
          "type": "address"
        }
      ],
      "stateMutability": "view",
      "type": "function"
    },
    {
      "inputs": [],
      "name": "renounceOwnership",
      "outputs": [],
      "stateMutability": "nonpayable",
      "type": "function"
    },
    {
      "inputs": [
        {
          "internalType": "address",
          "name": "newOwner",
          "type": "address"
        }
      ],
      "name": "transferOwnership",
      "outputs": [],
      "stateMutability": "nonpayable",
      "type": "function"
    },
    {
      "inputs": [
        {
          "internalType": "contract ITransparentUpgradeableProxy",
          "name": "proxy",
          "type": "address"
        }
      ],
      "name": "getProxyImplementation",
      "outputs": [
        {
          "internalType": "address",
          "name": "",
          "type": "address"
        }
      ],
      "stateMutability": "view",
      "type": "function"
    },
    {
      "inputs": [
        {
          "internalType": "contract ITransparentUpgradeableProxy",
          "name": "proxy",
          "type": "address"
        }
      ],
      "name": "getProxyAdmin",
      "outputs": [
        {
          "internalType": "address",
          "name": "",
          "type": "address"
        }
      ],
      "stateMutability": "view",
      "type": "function"
    },
    {
      "inputs": [
        {
          "internalType": "contract ITransparentUpgradeableProxy",
          "name": "proxy",
          "type": "address"
        },
        {
          "internalType": "address",
          "name": "newAdmin",
          "type": "address"
        }
      ],
      "name": "changeProxyAdmin",
      "outputs": [],
      "stateMutability": "nonpayable",
      "type": "function"
    },
    {
      "inputs": [
        {
          "internalType": "contract ITransparentUpgradeableProxy",
          "name": "proxy",
          "type": "address"
        },
        {
          "internalType": "address",
          "name": "implementation",
          "type": "address"
        }
      ],
      "name": "upgrade",
      "outputs": [],
      "stateMutability": "nonpayable",
      "type": "function"
    },
    {
      "inputs": [
        {
          "internalType": "contract ITransparentUpgradeableProxy",
          "name": "proxy",
          "type": "address"
        },
        {
          "internalType": "address",
          "name": "implementation",
          "type": "address"
        },
        {
          "internalType": "bytes",
          "name": "data",
          "type": "bytes"
        }
      ],
      "name": "upgradeAndCall",
      "outputs": [],
      "stateMutability": "payable",
      "type": "function"
    }
  ],
  "bytecode": "0x608060405234801561001057600080fd5b5061002d61002261003260201b60201c565b61003a60201b60201c565b6100fe565b600033905090565b60008060009054906101000a900473ffffffffffffffffffffffffffffffffffffffff169050816000806101000a81548173ffffffffffffffffffffffffffffffffffffffff021916908373ffffffffffffffffffffffffffffffffffffffff1602179055508173ffffffffffffffffffffffffffffffffffffffff168173ffffffffffffffffffffffffffffffffffffffff167f8be0079c531659141344cd1fd0a4f28419497f9722a3daafe3b4186f6b6457e060405160405180910390a35050565b610cc38061010d6000396000f3fe60806040526004361061007b5760003560e01c80639623609d1161004e5780639623609d1461012857806399a88ec414610144578063f2fde38b1461016d578063f3b7dead146101965761007b565b8063204e1c7a14610080578063715018a6146100bd5780637eff275e146100d45780638da5cb5b146100fd575b600080fd5b34801561008c57600080fd5b506100a760048036038101906100a291906106f2565b6101d3565b6040516100b4919061072e565b60405180910390f35b3480156100c957600080fd5b506100d2610267565b005b3480156100e057600080fd5b506100fb60048036038101906100f69190610775565b61027b565b005b34801561010957600080fd5b506101126102f2565b60405161011f919061072e565b60405180910390f35b610142600480360381019061013d91906108fb565b61031b565b005b34801561015057600080fd5b5061016b60048036038101906101669190610775565b610396565b005b34801561017957600080fd5b50610194600480360381019061018f919061096a565b61040d565b005b3480156101a257600080fd5b506101bd60048036038101906101b891906106f2565b610490565b6040516101ca919061072e565b60405180910390f35b60008060008373ffffffffffffffffffffffffffffffffffffffff166040516101fb906109ee565b600060405180830381855afa9150503d8060008114610236576040519150601f19603f3d011682016040523d82523d6000602084013e61023b565b606091505b50915091508161024a57600080fd5b8080602001905181019061025e9190610a41565b92505050919050565b61026f610524565b61027960006105a2565b565b610283610524565b8173ffffffffffffffffffffffffffffffffffffffff16638f283970826040518263ffffffff1660e01b81526004016102bc919061072e565b600060405180830381600087803b1580156102d657600080fd5b505af11580156102ea573d6000803e3d6000fd5b505050505050565b60008060009054906101000a900473ffffffffffffffffffffffffffffffffffffffff16905090565b610323610524565b8273ffffffffffffffffffffffffffffffffffffffff16634f1ef2863484846040518463ffffffff1660e01b815260040161035f929190610aed565b6000604051808303818588803b15801561037857600080fd5b505af115801561038c573d6000803e3d6000fd5b5050505050505050565b61039e610524565b8173ffffffffffffffffffffffffffffffffffffffff16633659cfe6826040518263ffffffff1660e01b81526004016103d7919061072e565b600060405180830381600087803b1580156103f157600080fd5b505af1158015610405573d6000803e3d6000fd5b505050505050565b610415610524565b600073ffffffffffffffffffffffffffffffffffffffff168173ffffffffffffffffffffffffffffffffffffffff1603610484576040517f08c379a000000000000000000000000000000000000000000000000000000000815260040161047b90610ba0565b60405180910390fd5b61048d816105a2565b50565b60008060008373ffffffffffffffffffffffffffffffffffffffff166040516104b890610c0c565b600060405180830381855afa9150503d80600081146104f3576040519150601f19603f3d011682016040523d82523d6000602084013e6104f8565b606091505b50915091508161050757600080fd5b8080602001905181019061051b9190610a41565b92505050919050565b61052c610666565b73ffffffffffffffffffffffffffffffffffffffff1661054a6102f2565b73ffffffffffffffffffffffffffffffffffffffff16146105a0576040517f08c379a000000000000000000000000000000000000000000000000000000000815260040161059790610c6d565b60405180910390fd5b565b60008060009054906101000a900473ffffffffffffffffffffffffffffffffffffffff169050816000806101000a81548173ffffffffffffffffffffffffffffffffffffffff021916908373ffffffffffffffffffffffffffffffffffffffff1602179055508173ffffffffffffffffffffffffffffffffffffffff168173ffffffffffffffffffffffffffffffffffffffff167f8be0079c531659141344cd1fd0a4f28419497f9722a3daafe3b4186f6b6457e060405160405180910390a35050565b600033905090565b6000604051905090565b600080fd5b600080fd5b600073ffffffffffffffffffffffffffffffffffffffff82169050919050565b60006106ad82610682565b9050919050565b60006106bf826106a2565b9050919050565b6106cf816106b4565b81146106da57600080fd5b50565b6000813590506106ec816106c6565b92915050565b60006020828403121561070857610707610678565b5b6000610716848285016106dd565b91505092915050565b610728816106a2565b82525050565b6000602082019050610743600083018461071f565b92915050565b610752816106a2565b811461075d57600080fd5b50565b60008135905061076f81610749565b92915050565b6000806040838503121561078c5761078b610678565b5b600061079a858286016106dd565b92505060206107ab85828601610760565b9150509250929050565b600080fd5b600080fd5b6000601f19601f8301169050919050565b7f4e487b7100000000000000000000000000000000000000000000000000000000600052604160045260246000fd5b610808826107bf565b810181811067ffffffffffffffff82111715610827576108266107d0565b5b80604052505050565b600061083a61066e565b905061084682826107ff565b919050565b600067ffffffffffffffff821115610866576108656107d0565b5b61086f826107bf565b9050602081019050919050565b82818337600083830152505050565b600061089e6108998461084b565b610830565b9050828152602081018484840111156108ba576108b96107ba565b5b6108c584828561087c565b509392505050565b600082601f8301126108e2576108e16107b5565b5b81356108f284826020860161088b565b91505092915050565b60008060006060848603121561091457610913610678565b5b6000610922868287016106dd565b935050602061093386828701610760565b925050604084013567ffffffffffffffff8111156109545761095361067d565b5b610960868287016108cd565b9150509250925092565b6000602082840312156109805761097f610678565b5b600061098e84828501610760565b91505092915050565b600081905092915050565b7f5c60da1b00000000000000000000000000000000000000000000000000000000600082015250565b60006109d8600483610997565b91506109e3826109a2565b600482019050919050565b60006109f9826109cb565b9150819050919050565b6000610a0e82610682565b9050919050565b610a1e81610a03565b8114610a2957600080fd5b50565b600081519050610a3b81610a15565b92915050565b600060208284031215610a5757610a56610678565b5b6000610a6584828501610a2c565b91505092915050565b600081519050919050565b600082825260208201905092915050565b60005b83811015610aa8578082015181840152602081019050610a8d565b60008484015250505050565b6000610abf82610a6e565b610ac98185610a79565b9350610ad9818560208601610a8a565b610ae2816107bf565b840191505092915050565b6000604082019050610b02600083018561071f565b8181036020830152610b148184610ab4565b90509392505050565b600082825260208201905092915050565b7f4f776e61626c653a206e6577206f776e657220697320746865207a65726f206160008201527f6464726573730000000000000000000000000000000000000000000000000000602082015250565b6000610b8a602683610b1d565b9150610b9582610b2e565b604082019050919050565b60006020820190508181036000830152610bb981610b7d565b9050919050565b7ff851a44000000000000000000000000000000000000000000000000000000000600082015250565b6000610bf6600483610997565b9150610c0182610bc0565b600482019050919050565b6000610c1782610be9565b9150819050919050565b7f4f776e61626c653a2063616c6c6572206973206e6f7420746865206f776e6572600082015250565b6000610c57602083610b1d565b9150610c6282610c21565b602082019050919050565b60006020820190508181036000830152610c8681610c4a565b905091905056fea26469706673582212206b639db220da900dc0cc3e8e1c41f7a5351d4eafc49bcb1cb39f4da5a787257e64736f6c63430008130033",
  "immutableReferences": {},
  "source": "// SPDX-License-Identifier: MIT\n// OpenZeppelin Contracts (last updated v4.8.3) (proxy/transparent/ProxyAdmin.sol)\n\npragma solidity ^0.8.0;\n\nimport \"./TransparentUpgradeableProxy.sol\";\nimport \"../../access/Ownable.sol\";\n\n/**\n * @dev This is an auxiliary contract meant to be assigned as the admin of a {TransparentUpgradeableProxy}. For an\n * explanation of why you would want to use this see the documentation for {TransparentUpgradeableProxy}.\n */\ncontract ProxyAdmin is Ownable {\n    /**\n     * @dev Returns the current implementation of `proxy`.\n     *\n     * Requirements:\n     *\n     * - This contract must be the admin of `proxy`.\n     */\n    function getProxyImplementation(ITransparentUpgradeableProxy proxy) public view virtual returns (address) {\n        // We need to manually run the static call since the getter cannot be flagged as view\n        // bytes4(keccak256(\"implementation()\")) == 0x5c60da1b\n        (bool success, bytes memory returndata) = address(proxy).staticcall(hex\"5c60da1b\");\n        require(success);\n        return abi.decode(returndata, (address));\n    }\n\n    /**\n     * @dev Returns the current admin of `proxy`.\n     *\n     * Requirements:\n     *\n     * - This contract must be the admin of `proxy`.\n     */\n    function getProxyAdmin(ITransparentUpgradeableProxy proxy) public view virtual returns (address) {\n        // We need to manually run the static call since the getter cannot be flagged as view\n        // bytes4(keccak256(\"admin()\")) == 0xf851a440\n        (bool success, bytes memory returndata) = address(proxy).staticcall(hex\"f851a440\");\n        require(success);\n        return abi.decode(returndata, (address));\n    }\n\n    /**\n     * @dev Changes the admin of `proxy` to `newAdmin`.\n     *\n     * Requirements:\n     *\n     * - This contract must be the current admin of `proxy`.\n     */\n    function changeProxyAdmin(ITransparentUpgradeableProxy proxy, address newAdmin) public virtual onlyOwner {\n        proxy.changeAdmin(newAdmin);\n    }\n\n    /**\n     * @dev Upgrades `proxy` to `implementation`. See {TransparentUpgradeableProxy-upgradeTo}.\n     *\n     * Requirements:\n     *\n     * - This contract must be the admin of `proxy`.\n     */\n    function upgrade(ITransparentUpgradeableProxy proxy, address implementation) public virtual onlyOwner {\n        proxy.upgradeTo(implementation);\n    }\n\n    /**\n     * @dev Upgrades `proxy` to `implementation` and calls a function on the new implementation. See\n     * {TransparentUpgradeableProxy-upgradeToAndCall}.\n     *\n     * Requirements:\n     *\n     * - This contract must be the admin of `proxy`.\n     */\n    function upgradeAndCall(\n        ITransparentUpgradeableProxy proxy,\n        address implementation,\n        bytes memory data\n    ) public payable virtual onlyOwner {\n        proxy.upgradeToAndCall{value: msg.value}(implementation, data);\n    }\n}\n",
  "sourcePath": "C:\\Users\\weich\\OneDrive\\\\GitHub\\CSE426SmartContract\\contract\\contracts\\helper_contracts\\@openzeppelin\\contracts\\proxy\\transparent\\ProxyAdmin.sol",
  "compiler": {
    "name": "solc",
    "version": "0.8.19+commit.7dd6d404.Emscripten.clang"
  },
  "schemaVersion": "3.4.13",
  "updatedAt": "2023-04-28T23:56:02.871Z",
  "devdoc": {
    "details": "This is an auxiliary contract meant to be assigned as the admin of a {TransparentUpgradeableProxy}. For an explanation of why you would want to use this see the documentation for {TransparentUpgradeableProxy}.",
    "kind": "dev",
    "methods": {
      "changeProxyAdmin(address,address)": {
        "details": "Changes the admin of `proxy` to `newAdmin`. Requirements: - This contract must be the current admin of `proxy`."
      },
      "getProxyAdmin(address)": {
        "details": "Returns the current admin of `proxy`. Requirements: - This contract must be the admin of `proxy`."
      },
      "getProxyImplementation(address)": {
        "details": "Returns the current implementation of `proxy`. Requirements: - This contract must be the admin of `proxy`."
      },
      "owner()": {
        "details": "Returns the address of the current owner."
      },
      "renounceOwnership()": {
        "details": "Leaves the contract without owner. It will not be possible to call `onlyOwner` functions anymore. Can only be called by the current owner. NOTE: Renouncing ownership will leave the contract without an owner, thereby removing any functionality that is only available to the owner."
      },
      "transferOwnership(address)": {
        "details": "Transfers ownership of the contract to a new account (`newOwner`). Can only be called by the current owner."
      },
      "upgrade(address,address)": {
        "details": "Upgrades `proxy` to `implementation`. See {TransparentUpgradeableProxy-upgradeTo}. Requirements: - This contract must be the admin of `proxy`."
      },
      "upgradeAndCall(address,address,bytes)": {
        "details": "Upgrades `proxy` to `implementation` and calls a function on the new implementation. See {TransparentUpgradeableProxy-upgradeToAndCall}. Requirements: - This contract must be the admin of `proxy`."
      }
    },
    "version": 1
  },
  "userdoc": {
    "kind": "user",
    "methods": {},
    "version": 1
  }
}